:020000040000fa
:080000000002040000000000f2
:020000040000fa
:040008007003000081
:020000040000fa
:04000c00700300007d
:020000040000fa
:040010007003000079
:020000040000fa
:040014007003000075
:020000040000fa
:040018007003000071
:020000040000fa
:04001c00700300006d
:020000040000fa
:040020007003000069
:020000040000fa
:040024007003000065
:020000040000fa
:040028007003000061
:020000040000fa
:04002c00700300005d
:020000040000fa
:040030007003000059
:020000040000fa
:0400340002030000c3
:020000040000fa
:040038007003000051
:020000040000fa
:04003c00700300004d
:020000040000fa
:040040007003000049
:020000040000fa
:040044007003000045
:020000040000fa
:04004800fa020000b8
:020000040000fa
:04004c00700300003d
:020000040000fa
:040050007003000039
:020000040000fa
:040054007003000035
:020000040000fa
:040058007003000031
:020000040000fa
:04005c004e0300004f
:020000040000fa
:040060007003000029
:020000040000fa
:040064007003000025
:020000040000fa
:040068007003000021
:020000040000fa
:04006c00700300001d
:020000040000fa
:040070007003000019
:020000040000fa
:040074007003000015
:020000040000fa
:040078007003000011
:020000040000fa
:04007c00700300000d
:020000040000fa
:040080007003000009
:020000040000fa
:040084007003000005
:020000040000fa
:040088007003000001
:020000040000fa
:04008c0070030000fd
:020000040000fa
:0400900070030000f9
:020000040000fa
:040094002203000043
:020000040000fa
:0400980070030000f1
:020000040000fa
:04009c0070030000ed
:020000040000fa
:0400a00070030000e9
:020000040000fa
:0400a40070030000e5
:020000040000fa
:0400a80070030000e1
:020000040000fa
:0400ac0070030000dd
:020000040000fa
:0400b00070030000d9
:020000040000fa
:0400b40070030000d5
:020000040000fa
:0400b80070030000d1
:020000040000fa
:0400bc0070030000cd
:020000040000fa
:0400c00070030000c9
:020000040000fa
:0400c40070030000c5
:020000040000fa
:0400c80070030000c1
:020000040000fa
:0400cc0070030000bd
:020000040000fa
:0400d00070030000b9
:020000040000fa
:0400d40070030000b5
:020000040000fa
:0400d80070030000b1
:020000040000fa
:0400dc0070030000ad
:020000040000fa
:0400e00070030000a9
:020000040000fa
:0400e40070030000a5
:020000040000fa
:0400e80070030000a1
:020000040000fa
:0400ec00700300009d
:020000040000fa
:0400f0007003000099
:020000040000fa
:0400f4007003000095
:020000040000fa
:0400f8007003000091
:020000040000fa
:0400fc00700300008d
:020000040000fa
:040100007003000088
:020000040000fa
:040104007003000084
:020000040000fa
:040108007003000080
:020000040000fa
:04010c00700300007c
:020000040000fa
:040110007003000078
:020000040000fa
:040114007003000074
:020000040000fa
:040118007003000070
:020000040000fa
:04011c00700300006c
:020000040000fa
:040120007003000068
:020000040000fa
:040124007003000064
:020000040000fa
:040128007003000060
:020000040000fa
:04012c00700300005c
:020000040000fa
:040130007003000058
:020000040000fa
:040134007003000054
:020000040000fa
:040138007003000050
:020000040000fa
:04013c00700300004c
:020000040000fa
:040140007003000048
:020000040000fa
:040144007003000044
:020000040000fa
:040148007003000040
:020000040000fa
:04014c00700300003c
:020000040000fa
:040150007003000038
:020000040000fa
:040154007003000034
:020000040000fa
:040158007003000030
:020000040000fa
:04015c00700300002c
:020000040000fa
:040160007003000028
:020000040000fa
:040164007003000024
:020000040000fa
:040168007003000020
:020000040000fa
:04016c00700300001c
:020000040000fa
:040170007003000018
:020000040000fa
:040174007003000014
:020000040000fa
:040178007003000010
:020000040000fa
:04017c00700300000c
:020000040000fa
:040180007003000008
:020000040000fa
:040184007003000004
:020000040000fa
:040188007003000000
:020000040000fa
:04018c0070030000fc
:020000040000fa
:0401900070030000f8
:020000040000fa
:0401940070030000f4
:020000040000fa
:0401980070030000f0
:020000040000fa
:04019c0070030000ec
:020000040000fa
:0401a00070030000e8
:020000040000fa
:0401a40070030000e4
:020000040000fa
:0401a80070030000e0
:020000040000fa
:0401ac0070030000dc
:020000040000fa
:0401b00070030000d8
:020000040000fa
:0401b40070030000d4
:020000040000fa
:0401b80070030000d0
:020000040000fa
:0401bc0070030000cc
:020000040000fa
:0401c00070030000c8
:020000040000fa
:0401c40070030000c4
:020000040000fa
:0401c80070030000c0
:020000040000fa
:0401cc0070030000bc
:020000040000fa
:0401d00070030000b8
:020000040000fa
:0401d40070030000b4
:020000040000fa
:0401d80070030000b0
:020000040000fa
:0401dc0070030000ac
:020000040000fa
:0401e00070030000a8
:020000040000fa
:0401e40070030000a4
:020000040000fa
:0401e80070030000a0
:020000040000fa
:0401ec00700300009c
:020000040000fa
:0401f0007003000098
:020000040000fa
:0401f4007003000094
:020000040000fa
:0401f8007003000090
:020000040000fa
:0401fc00700300008c
:020000040000fa
:040200007003000087
:020000040000fa
:040204007003000083
:020000040000fa
:04020800700300007f
:020000040000fa
:04020c00700300007b
:020000040000fa
:040210007003000077
:020000040000fa
:040214007003000073
:020000040000fa
:04021800700300006f
:020000040000fa
:04021c00700300006b
:020000040000fa
:040220007003000067
:020000040000fa
:040224007003000063
:020000040000fa
:04022800700300005f
:020000040000fa
:04022c00700300005b
:020000040000fa
:040230007003000057
:020000040000fa
:040234007003000053
:020000040000fa
:04023800700300004f
:020000040000fa
:04023c00700300004b
:020000040000fa
:040240007003000047
:020000040000fa
:040244007003000043
:020000040000fa
:04024800700300003f
:020000040000fa
:04024c00700300003b
:020000040000fa
:040250007003000037
:020000040000fa
:040254007003000033
:020000040000fa
:04025800700300002f
:020000040000fa
:04025c00700300002b
:020000040000fa
:040260007003000027
:020000040000fa
:040264007003000023
:020000040000fa
:04026800700300001f
:020000040000fa
:04026c00700300001b
:020000040000fa
:040270007003000017
:020000040000fa
:040274007003000013
:020000040000fa
:04027800700300000f
:020000040000fa
:04027c00700300000b
:020000040000fa
:040280007003000007
:020000040000fa
:100400006f0321000eff2c000e0188000000000089
:10041000000020000000e000020032000001200087
:100420002002880014000700af0007000000e00071
:1004300003003a0020fe20000100200002003700e7
:100440000000200001002000810f70000100320038
:100450000f000700000020000000e0000200320052
:100460000000020000000000dc06020000000000a6
:100470000040da000000fe00200020000000e00044
:1004800002003200100020009001880000000600e9
:10049000a1028800800478000000eb001f003700f4
:1004a000e284440054a0b4009905ba00e2844400f8
:1004b00054a0b4009906ba00e284440054a0b400e9
:1004c0000006eb00476fde00fd07b200ae018800ba
:1004d000636ce10003003a000ad801000000eb0061
:1004e0000e003700606ce10008003a00004deb00a0
:1004f0000a05e800020039003420ec000af0a000f0
:100500008b05e900f9ff3e00040037006168e10057
:10051000010032000086eb000b00070019c7ba008b
:100520000e04e0001905ba0003003a000a00e000da
:10053000dbff3a0000000600fe07b200ae028800b2
:100540008a047800f5ff37000cd0a300e20f4d00bd
:100550001c00390089027800354dba000a05e80010
:10056000020039003420ec000af0a0008b05e900fd
:100570000f003200254dba000a05e80002003900dc
:100580003420ec000af0a0008b05e90008003200de
:100590000c00e0000600320015cdba000a05e800a4
:1005a000020039003420ec000af0a0008b05e900bd
:1005b0008984e80054a0b4000b00e000e2ff3a0098
:1005c000000006009902ba00055d78008b05e9007d
:1005d000f7ff3200c82ade00055d78008b05e900d0
:1005e000f3ff32000c00e000f1ff320019ddba0029
:1005f000eeff37000000fa000108a9000080fa00b1
:10060000004006003600f800809fbe00829fbe00ba
:10061000849fbe00869fbe000000fa000068a9000b
:10062000ba0407002c0607000080fa004f03be0042
:100630004f02be004f01be004f00be003600f90061
:10064000004006003600f800809fbe00829fbe007a
:10065000849fbe00869fbe000000fa000368a900c8
:10066000aa04070060808000718080006100400063
:10067000e080480060808800718088006102070087
:100680000080fa004f03be004f02be004f01be00c3
:100690004f00be003600f90000400600809fbe00fb
:1006a0000000fa0001a8a900011880002000210024
:1006b0000108780011188000200021001100980026
:1006c00021188000200021002100980010c0b300f4
:1006d0000af0b7000080fa004f00be00004006009c
:1006e0000040da000000fe000000050003f0a20058
:1006f000889fbe008a9fbe008c1f780018010700eb
:100700001f0133006450e1004f0032006420e1001b
:100710005200320003826c0007003b000905d00044
:100720000306d000820f54000c065d000200390061
:1007300002003200890178000306780085825500a6
:1007400004003d000003fd008103fd008502ea0076
:100750008b854200840f720002003b006000100095
:10076000e08018006011b8000005eb007a28e10075
:100770000a00390006007800c75ddd00f707b20007
:10078000878075002d003700828171000a01780092
:10079000610560008180d1000080d3008502e900fe
:1007a000f9ff3b00060440008784480002003b003c
:1007b00060041400e0841c000988a30007003200d4
:1007c0008a81710082817100610164008904d10015
:1007d0000884d3008b05e800170037000978a300d0
:1007e00013003a000b00e000130034008b05e90011
:1007f0000804440089844c000a4474000978a3006a
:100800000d003a000b00e000070034008b05e90002
:100810000804440089844c0001003a000b002000c9
:100820000978a300f7ff32000001eb000200370057
:10083000828171000a0178008e0007000cf0a70089
:1008400001f0a000d70037006420e10002003a0068
:10085000838f6c00d70033000801be000200be0089
:10086000d0003700889fbe008a9fbe008c1f780092
:10087000bb000700c200330003866c006450e10037
:100880002e0032006420e100330032006150e100ac
:100890002f0032006120e1003100320085855500d3
:1008a000eb07b00009002000080420000500370015
:1008b0000804440089844c000a0031000603430008
:1008c00087834b000001530081815b00f8ff3300f8
:1008d0000203be000800a0000804440089844c0004
:1008e000f6ff3900c639dd008301730001003200d4
:1008f000130020008904d1000884d3000998a300c4
:10090000050032000800a7000300a0008904d10000
:100910000884d3008b05e8008904d1000884d30043
:100920000001eb000281d2005200070001f0a1009b
:100930000cf0a70001f0a0009a0037006420e1004d
:100940009c0032000801be000200be00f7ff370025
:100950006120e100970032006000b800f3ff37002b
:100960000000200001f82700f0ff370014002000ed
:10097000c7003700f4ff2f00c50037000001be009c
:10098000620007000470a70003f0a1006509b10030
:10099000160032000d0035006828e1000600350021
:1009a000f0ff2f00f1ff27000300e00013003b00e1
:1009b0000100280000000500000040008180480080
:1009c0008502e900fcff3a0008003700f88f42007a
:1009d00002003c008000eb00000005008100d10017
:1009e0000080d3008502e800fcff3a000300e0002d
:1009f00002003b0060001000e080180000000600cc
:100a00000001be00410007000470a70003f0a10030
:100a100003f8a30013003a006509b100100032008a
:100a2000090035006928e1000200350001002800b6
:100a30000000050000004000818048008502e900b8
:100a4000fcff3a0000000600f88f42000500350068
:100a50008100d1000080d3008502e800fcff3a004d
:100a6000000006008000eb00000005006011b800e7
:100a7000a200370081002000618055000b003d007e
:100a80000b00200061fe2f000100e1001d0034007a
:100a900082817100610164008904d1000884d3005f
:100aa0000000e800faff3a007100200061006400d5
:100ab000030070000200600009003200610444007d
:100ac000e0844c000988a500050032008b05e80091
:100ad0006808e10002003a008904d1000884d300cc
:100ae000f20f20000258e10005003d00c75ddd0067
:100af000f907b20089807500080078000000060040
:100b00000bf827008b00780000000500c70ade0004
:100b1000f107b200f50fb20008003200e1cf420049
:100b2000020032000170a00024000500810f700057
:100b3000010032000408050044000500810f700028
:100b400002003a00140005008502e90000004000a0
:100b500081c04800fcff3b000170a000240005009c
:100b60000004be00e9ff07000003be000405be004c
:100b70000200be00e5ff0700844f7500000006007c
:100b80000200be006450e100050036006420e10070
:100b9000020036000968a30001003a000800be0008
:100ba0000160a0004f0678004f05be004f04be0054
:100bb00000000600f0ff2f00f1ff2700f9ff3700cb
:100bc000889fbe008a9fbe008c1f7800e4ff07004c
:100bd000ebff330003866c006450e1002400320018
:100be0006420e100270032006150e1002200320061
:100bf0006120e100210032008b854200eb07b1004b
:100c00000134b800003ab8000804420089844a0060
:100c1000013ab8000030b8008880400009014a005d
:100c200004003300000040008180480002014900b8
:100c30008b05e900c909dd00830170000100320065
:100c400013002000c814de004814dd004709de0050
:100c50001200b200c808de000884700085ff07009b
:100c600001f0a1000cf0a70001f0a000cdff3700bb
:100c70006120e100cfff32000801be000200be008b
:100c8000f7ff37006150e100fcff3a00c9ff370071
:100c9000889fbe008a9fbe00841f7800b0ff0700b7
:100ca0004f00780011003300f0ff2f00838f6c009d
:100cb00006003b00040565000a00a7000800370095
:100cc00009f0a6001000200008003700820f540031
:100cd000838f5c00030039001000200001003e00fb
:100ce0000000200009f0a7000000ea004f05be0048
:100cf0004f04be000000e00000000600889fbe0018
:100d00008a9fbe000082700004027100048271009c
:100d1000260032000004be000200be006011b800d0
:100d20006b092000950220000182cf000a003900e3
:100d30000541b1000082cf00070039000541b10034
:100d40000982cf00040039000541b1000882cf00bc
:100d5000010039000541b100054252001200320085
:100d60000a003b0082817100610164008100d100b2
:100d70000080d3008984d3000884d3008b05e80069
:100d80000442e800f7ff3a00070037000804440077
:100d900089844c0000004800818048008b05e900f0
:100da0000442e900f9ff3a0032ff07004f05be0098
:080db0004f04be000000060024
:020000040000fa
:100db8000600fa00881f7800550407009104070010
:100dc800b40207000c04070012c0b30000002000a2
:100dd800011a24006c03070022c0b30000002000a1
:100de800011a240068030700ac01070092010700fc
:100df8002902070064cea80064eea800254ea800ca
:100e0800010037000000000039040700e14f5000de
:100e1800fcff3a003a04070031040700000f78008d
:100e28009e00780064804000100078008000eb008d
:100e38000cff070032332300330524005eff070050
:100e4800020020000358240084fe0700d2cc2c00a6
:100e5800c304240058ff07001007980021079800d2
:100e68001e019000ae0190000000200081202400a7
:100e78007afe070002002000030a240019fe07007a
:100e880090818800a181880090818000a1818000e4
:100e980018c0b30002002000031f2400b1fe0700a1
:100ea8000000e000010034000044eb000804e0000a
:100eb8000200320064cea8000100370064cea90009
:100ec8001e80e800100078008000eb00e5fe0700b7
:100ed800323323003305240037ff070002002000c7
:100ee800035824005dfe0700d2cc2c00c304240064
:100ef80031ff070010079800210798001e01900095
:100f0800ae019000000020008120240053fe07005d
:100f180002002000030a2400f2fd07007081880007
:100f280081818800708180008181800018c0b300b1
:100f380002002000031f24008afe07000000e000d2
:100f4800010034000044eb000804e0000200320015
:100f580064eea8000100370064eea9001e007800c6
:100f6800100078008000eb00befe0700323323003b
:100f78003305240010ff0700020020000358240056
:100f880036fe0700d2cc2c00c30424000aff070059
:100f980010079800210798001e019000ae019000ec
:100fa80000002000812024002cfe07000200200001
:100fb800030a2400cbfd0700508188006181880066
:100fc800508180006181800018c0b30002002000b9
:100fd800031f240063fe07000000e0000100340046
:100fe8000044eb000804e00002003200254ea8008f
:100ff80085ff3700254ea90083ff37000000fa005f
:1010080017d0bf000080fb00cf80de00b2002000b8
:1010180003002000820f5000838f580060003e00bc
:10102800000601000b003700140037001d003700d0
:10103800270037002800370031003700320037001a
:101048003b0037003c0037004600370047003700b8
:10105800510037000c30ef000e30ef0022c0b30013
:101068006000b800c802070012c0b3006000b800f2
:10107800c502070010c0b30017f0b70062808000f7
:1010880073808000803e200001002000800f510006
:10109800818f59004500360020c0b30017f0b70013
:1010a8004300370022c0b30000002000011a2400ca
:1010b800b502070012c0b30000002000011a240086
:1010c800b102070030c0b30017f0b700380037008e
:1010d800390007003600370022c0b30000002000a6
:1010e800011a2400a802070012c0b3006000b8006b
:1010f800a502070050c0b30017f0b7002c00370056
:101108002d0007002a00370022c0b3006000b80095
:101118009d02070012c0b30000002000011a24003d
:101128009902070070c0b30017f0b700200037001d
:10113800210007001e00370022c0b3000000200075
:10114800011724009002070012c0b300000020001d
:1011580001172c008c02070090c0b30017f0b700ed
:1011680013003700140007001100370022c0b30035
:101178000000200001172c008302070012c0b300f2
:1011880000002000011724007f020700b0c0b30050
:1011980017f0b70006003700070007000400370003
:1011a8001770ef0000000000010037000000000089
:1011b8000080fa00000006000200fa00881f78008c
:1011c8000040eb00004f7800508180006181800072
:1011d80018c0b30002002000031f2400e1fd07002f
:1011e8000000e000010035000044eb000804e000c6
:1011f80019003200708180008181800018c0b3001e
:1012080002002000031a2400d8fd07000000e000b7
:1012180001003c000044eb000804e0000e0032002e
:1012280090818000a181800018c0b30002002000d6
:10123800031f2400cdfd07000000e00001003c0072
:101248000044eb000804e0000300320020c0b300b3
:10125800004f780055003700508180006181800080
:1012680018c0b30002002000031f2400bffd0700c0
:101278000000e00001003c000044eb000804e0002e
:1012880019003200708180008181800018c0b3008d
:1012980002002000031a2400b4fd07000000e0004b
:1012a80001003c000044eb000804e0000e0032009e
:1012b80090818000a181800018c0b3000200200046
:1012c800031f2400a7fd07000000e000010035000f
:1012d8000044eb000804e0000300320010c0b30033
:1012e800004f7800310037007081800081818000d4
:1012f80018c0b30002002000031a240099fd07005b
:101308000000e000010035000044eb000804e000a4
:101318000300320030c0b300004f780023003700cc
:10132800508180006181800018c0b3000200200055
:10133800031f24008dfd07000000e00001003c00b1
:101348000044eb000804e0001800320070818000bf
:101358008181800018c0b30002002000031a240015
:1013680082fd07000000e00001003c000044eb00a3
:101378000804e0000d00320090818000a181800007
:1013880018c0b30002002000031f240077fd0700e7
:101398000000e00001003c000044eb000804e0000d
:1013a800020032000040eb00004f78001e40780039
:1013b8000004e00003003a0020c0b30016f0b700b4
:1013c800110037001e407800e24f500003003a0039
:1013d80040c0b30016f0b7000b0037001e4078007d
:1013e800e14f500003003a0060c0b30016f0b700a8
:1013f800050037001e407800e34f500002003a0015
:1014080080c0b30016f0b70016d0bf008080fb0084
:1014180017d0bf000080fb000000e900808f50005b
:101428000200320016d0bf0017f0b7004f04780052
:101438000080fa00000006000000fa0013e1a9008d
:1014480011e1a9001061a8001021a90081088000fd
:10145800f0fc2f0000806000800888000a21ef005f
:101468000621ef00404c20007008880000402b0047
:10147800600888002142800080ff2f000080600003
:101488000000a000204288000108a9002108a80047
:1014980011e1a8000080fa00000006000000fa0030
:1014a80005e1a9000421a9000068a9002068a80096
:1014b80005e1a800000020008124240002000700a4
:1014c8000080fa00000006000400fa00881f780077
:1014d800008fbe0021088000f0fc2f000080600013
:1014e800200888001e0178009e01900000682900ed
:1014f80081c12400d9fc070018c0b30002f02f00f6
:10150800f377240019fd07000000e00001003c000b
:101518000044eb000804e000540032002108800079
:10152800f0fc2f00008060000040a0002008880028
:101538001e0178009e0190000068290081c12400e6
:10154800c6fc07000200200003102400c3fc0700ab
:1015580018c0b30002f02f00f377240003fd070042
:101568000000e00001003c000044eb000804e0003b
:101578003200320021088000f0fc2f00008060005b
:101588000050a000200888001e0178009e019000ed
:101598000068290081c12400b0fc07000200200077
:1015a80003282400adfc070018c0b30002f02f0088
:1015b800f3772400edfc07000000e00001003c0088
:1015c8000044eb000804e00010003200210880000d
:1015d8000003200001007000200888001e01780028
:1015e8009e0190000068290081c124009bfc07002f
:1015f800020020000338240098fc0700ddfc0700e7
:101608000000780010088800200037001e017800cc
:101618009e0190000068290081c124008ffc07000a
:1016280002002000032824008cfc0700d1fc0700de
:101638000000780010088800140037001e017800a8
:101648009e0190000068290081c1240083fc0700e6
:10165800020020000310240080fc0700c5fc0700de
:101668000000780010088800080037001e01780084
:101678009e0190000068290081c1240077fc0700c2
:10168800bcfc070000007800100888004f047800b0
:101698000080fa00000006000000fa001fe1a9001f
:1016a8001e21a9000368a9002368a8001fe1a8005b
:1016b80000002000a1472400020007000080fa0073
:1016c800000006000400fa00881f7800008fbe00a2
:1016d800f1088000f0fc2f0000806000f00888000e
:1016e8001e0178009e0190000068290081c1240035
:1016f8005afc070018c0b30002f02f00f37724004b
:101708009afc07000000e00001003c000044eb00e8
:101718000804e00054003200f1088000f0fc2f00bb
:10172800008060000040a000f00888001e017800da
:101738009e0190000068290081c1240047fc070031
:10174800020020000310240044fc070018c0b30066
:1017580002f02f00f377240084fc07000000e0006b
:1017680001003c000044eb000804e00032003200b5
:10177800f1088000f0fc2f00008060000050a000fd
:10178800f00888001e0178009e019000006829007a
:1017980081c1240031fc0700020020000328240036
:1017a8002efc070018c0b30002f02f00f3772400c6
:1017b8006efc07000000e00001003c000044eb0064
:1017c8000804e00010003200f10880000003200047
:1017d80001007000f00888001e0178009e0190004a
:1017e8000068290081c124001cfc070002002000b9
:1017f8000338240019fc07005efc0700000078008d
:1018080010088800200037001e0178009e01900013
:101818000068290081c1240010fc07000200200094
:10182800032824000dfc070052fc07000000780084
:1018380010088800140037001e0178009e019000ef
:101848000068290081c1240004fc07000200200070
:101858000310240001fc070046fc07000000780084
:1018680010088800080037001e0178009e019000cb
:101878000068290081c12400f8fb07003dfc07002f
:1018880000007800100888004f0478000080fa00f3
:10189800000006000000fa001160800080ff2f00a1
:1018a800008060001060880000fa20002060880036
:1018b80023aca800238ca80011618000f03f2f0002
:1018c8000080600000a0a0001061880030002000a7
:1018d80020618800c3aca800c38ca80011668000f2
:1018e800f03f2f000080600000a0a0001066880074
:1018f800300020002066880001eca8000080fa0073
:10190800000006000000fa00889fbe0034818000b5
:1019180045818000108180002181800018c0b300bb
:101928000001be000400be000efc07000000e0003d
:10193800010035000044eb000804e0000d0032000f
:1019480018818000298180003481800045818000d1
:1019580090808000a18080000001be000400be00cd
:1019680061fb07000801be00ca000700308188003b
:101978004181880034818000458180001081800089
:101988002181800018c0b3000001be000400be0021
:10199800f6fb07000000e00001003c000044eb00fb
:1019a8000804e0000d0032001881800029818000c1
:1019b800348180004581800090808000a180800073
:1019c8000001be000400be0046fb07000801be007f
:1019d80098000700308188004181880030818000ac
:1019e8004181800018c0b3006011b800dffb070018
:1019f8000000e00001003c000044eb000804e000a7
:101a080004003200c3cca90024eea800c3eca8004f
:101a180003003700c3eca90024cea800c3cca8005b
:101a280030818000418180006c00070002002000a6
:101a38000322240060fc0700effb07000000780089
:101a480030668800f480800005818000d0808000a6
:101a5800e180800018c0b3000001be000400be0091
:101a6800c0fb07000000e000010035000044eb0067
:101a78000804e0000d003200d8808000e980800072
:101a8800f48080000581800090808000a180800023
:101a98000001be000400be0013fb07000801be00e1
:101aa8007c000700f080880001818800f4808000b5
:101ab80005818000d0808000e180800018c0b300dc
:101ac8000001be000400be00a8fb07000000e00003
:101ad80001003c000044eb000804e0000d00320067
:101ae800d8808000e9808000f48080000581800033
:101af80090808000a18080000001be000400be002c
:101b0800f8fa07000801be004a000700f0808800c4
:101b180001818800f08080000181800018c0b30036
:101b28006011b80091fb07000000e00001003c00d4
:101b38000044eb000804e0000400320023cca900b4
:101b480015eea80023eca8000300370023eca90039
:101b580015cea80023cca800f08080000181800069
:101b68001e000700020020000322240012fc0700c8
:101b7800a1fb070000007800306188004f04be0018
:101b88000080fa00000006000600fa00008fbe0080
:101b9800424798004e409000e14f500005003a003f
:101ba8001e0178009e019000d2808800e3808800a2
:101bb800080037004e409000e24f500005003a0000
:101bc8001e0078009e00900001f0a200108188009d
:101bd800218188000080fa00000006000400fa0055
:101be800881f7800008fbe0018c0b3006011b800cd
:101bf8001e0078009e0090005cfb07000000e000db
:101c080001003d000044eb000804e000030032003e
:101c18001e0078009e009000030037001e00780028
:101c28009e00900001f0a2004f0478000080fa00a6
:101c3800000006000800fa00881f7800008fbe0028
:101c4800220798003307980018c0b3002e019000af
:101c5800be0190001e0078009e00900043fb070024
:101c68000000e00001003c000044eb000804e00034
:101c7800030032001e0078009e009000020037002a
:101c88002e009000be0090004f0478000080fa00fb
:101c9800000006000800fa00881f7800008fbe00c8
:101ca800220798003307980018c0b3002e0190004f
:101cb800be0190001e0078009e00900029fb0700de
:101cc8000000e000010035000044eb000804e000db
:101cd800030032001e0078009e00900002003700ca
:101ce8002e009000be0090004f0478000080fa009b
:101cf800000006000c00fa00881f7800008fbe0064
:101d08002207980033079800440798005507980061
:101d180018c0b3004e019000de0190001e0078004c
:101d28009e00900011fb07000000e00001003c004d
:101d38000044eb000804e000040032004e0190006b
:101d4800de019000028fbe000e00370018c0b300fd
:101d58002e019000be0190001e0078009e009000a9
:101d680000fb07000000e000010035000044eb0024
:101d78000804e000030032002e019000be0190002c
:101d8800028fbe001e0078009e0090004f0478006d
:101d98000080fa00000006000400fa00008fbe0070
:101da800b2fd2000930424001e0078009e009000dd
:101db800aafa070002002000433324007efb070034
:101dc8000080fa00000006000400fa00008fbe0040
:101dd800b2fd2000930424001e0078009e009000ad
:101de80075fb070002002000433324009bfa07001c
:101df8000080fa00000006000000fa0021e3a900b4
:101e08002143a80001198000f0cf2f000080600056
:101e1800001988002043a90001198000000e200045
:101e2800010070000019880011198000f0ff2100de
:101e380000806000101988002343a8001119800051
:101e4800f0cf2f0000806000101988001119800061
:101e580030f82f00008060000030a00010198800c2
:101e68002203a9002223a90025e3a900f0c0b3009a
:101e780024e3b70021198000f00f2e008080600055
:101e880000f0200001007000201988003303a90029
:101e98002e0ea8002f6ea8006f2ea80030c3a80031
:101ea8003163a8002e03a8004119800000fc2f0010
:101eb800008060004019880028e3a90001a8a90053
:101ec80021a8a80021e3a8000080fa00000006006d
:101ed8000000fa002023a8000080fa000000060095
:101ee8000000fa00200021000080fa00000006002f
:101ef8000000fa000ad0bf000080fa0000000600c7
:101f08000000fa000a70ef000080fa0000000600e6
:101f18000000fa00f0032000303a8800213a8000df
:101f2800f0f32f0000806000203a8800213a8000fa
:101f380000fe2f00008060000000a000203a88000a
:101f48001200200080072000a1092000337420001f
:101f5800804978008149780082497800103a8000e9
:101f6800000178000200a000600420007105200034
:101f780023742000804978008149780082497800dc
:101f880000000000113a80000000270080806000f7
:101f980000002100808f5000faff3a000000000086
:101fa800113a800000022000008060000000e0007c
:0c1fb800fbff32000080fa000000060071
:020000040000fa
:101fc4001610000002000000800000000c10000049
:101fd4000600000080000000181000001e00000031
:101fe40080000000121000000400000082000000c5
:101ff4000000a00041000000001000000c000000e0
:08200400800000000000000054
:020000040000fa
:10200c000000fa000e2eef001e2eef002e2eef0019
:10201c003e2eef004e2eef005e2eef006e2eef00e8
:10202c00214ea90060cea90060eea90011cea90036
:10203c0011eea90020cea90020eea9000080fa0024
:04204c00000006008a
:020000040000fa
:02000004000af0
:04afe000cfff00009f
:020000040000fa
:02000004000af0
:04afe400ffff00006b
:020000040000fa
:02000004000af0
:04afe8007fff0000e7
:020000040000fa
:02000004000af0
:04afec005fff000003
:020000040000fa
:02000004000af0
:04aff00038ff000026
:020000040000fa
:02000004000af0
:04aff400ffff00005b
:00000001FF
