:020000040000fa
:080000000002040000000000f2
:020000040000fa
:04000800720300007f
:020000040000fa
:04000c00720300007b
:020000040000fa
:040010007203000077
:020000040000fa
:040014007203000073
:020000040000fa
:04001800720300006f
:020000040000fa
:04001c00720300006b
:020000040000fa
:040020007203000067
:020000040000fa
:040024007203000063
:020000040000fa
:04002800720300005f
:020000040000fa
:04002c00720300005b
:020000040000fa
:040030007203000057
:020000040000fa
:0400340002030000c3
:020000040000fa
:04003800720300004f
:020000040000fa
:04003c00720300004b
:020000040000fa
:040040007203000047
:020000040000fa
:040044007203000043
:020000040000fa
:04004800fa020000b8
:020000040000fa
:04004c00720300003b
:020000040000fa
:040050007203000037
:020000040000fa
:040054007203000033
:020000040000fa
:04005800720300002f
:020000040000fa
:04005c004e0300004f
:020000040000fa
:040060007203000027
:020000040000fa
:040064007203000023
:020000040000fa
:04006800720300001f
:020000040000fa
:04006c00720300001b
:020000040000fa
:040070007203000017
:020000040000fa
:040074007203000013
:020000040000fa
:04007800720300000f
:020000040000fa
:04007c00720300000b
:020000040000fa
:040080007203000007
:020000040000fa
:040084007203000003
:020000040000fa
:0400880072030000ff
:020000040000fa
:04008c0072030000fb
:020000040000fa
:0400900072030000f7
:020000040000fa
:040094002203000043
:020000040000fa
:0400980072030000ef
:020000040000fa
:04009c0072030000eb
:020000040000fa
:0400a00072030000e7
:020000040000fa
:0400a40072030000e3
:020000040000fa
:0400a80072030000df
:020000040000fa
:0400ac0072030000db
:020000040000fa
:0400b00072030000d7
:020000040000fa
:0400b40072030000d3
:020000040000fa
:0400b80072030000cf
:020000040000fa
:0400bc0072030000cb
:020000040000fa
:0400c00072030000c7
:020000040000fa
:0400c40072030000c3
:020000040000fa
:0400c80072030000bf
:020000040000fa
:0400cc0072030000bb
:020000040000fa
:0400d00072030000b7
:020000040000fa
:0400d40072030000b3
:020000040000fa
:0400d80072030000af
:020000040000fa
:0400dc0072030000ab
:020000040000fa
:0400e00072030000a7
:020000040000fa
:0400e40072030000a3
:020000040000fa
:0400e800720300009f
:020000040000fa
:0400ec00720300009b
:020000040000fa
:0400f0007203000097
:020000040000fa
:0400f4007203000093
:020000040000fa
:0400f800720300008f
:020000040000fa
:0400fc00720300008b
:020000040000fa
:040100007203000086
:020000040000fa
:040104007203000082
:020000040000fa
:04010800720300007e
:020000040000fa
:04010c00720300007a
:020000040000fa
:040110007203000076
:020000040000fa
:040114007203000072
:020000040000fa
:04011800720300006e
:020000040000fa
:04011c00720300006a
:020000040000fa
:040120007203000066
:020000040000fa
:040124007203000062
:020000040000fa
:04012800720300005e
:020000040000fa
:04012c00720300005a
:020000040000fa
:040130007203000056
:020000040000fa
:040134007203000052
:020000040000fa
:04013800720300004e
:020000040000fa
:04013c00720300004a
:020000040000fa
:040140007203000046
:020000040000fa
:040144007203000042
:020000040000fa
:04014800720300003e
:020000040000fa
:04014c00720300003a
:020000040000fa
:040150007203000036
:020000040000fa
:040154007203000032
:020000040000fa
:04015800720300002e
:020000040000fa
:04015c00720300002a
:020000040000fa
:040160007203000026
:020000040000fa
:040164007203000022
:020000040000fa
:04016800720300001e
:020000040000fa
:04016c00720300001a
:020000040000fa
:040170007203000016
:020000040000fa
:040174007203000012
:020000040000fa
:04017800720300000e
:020000040000fa
:04017c00720300000a
:020000040000fa
:040180007203000006
:020000040000fa
:040184007203000002
:020000040000fa
:0401880072030000fe
:020000040000fa
:04018c0072030000fa
:020000040000fa
:0401900072030000f6
:020000040000fa
:0401940072030000f2
:020000040000fa
:0401980072030000ee
:020000040000fa
:04019c0072030000ea
:020000040000fa
:0401a00072030000e6
:020000040000fa
:0401a40072030000e2
:020000040000fa
:0401a80072030000de
:020000040000fa
:0401ac0072030000da
:020000040000fa
:0401b00072030000d6
:020000040000fa
:0401b40072030000d2
:020000040000fa
:0401b80072030000ce
:020000040000fa
:0401bc0072030000ca
:020000040000fa
:0401c00072030000c6
:020000040000fa
:0401c40072030000c2
:020000040000fa
:0401c80072030000be
:020000040000fa
:0401cc0072030000ba
:020000040000fa
:0401d00072030000b6
:020000040000fa
:0401d40072030000b2
:020000040000fa
:0401d80072030000ae
:020000040000fa
:0401dc0072030000aa
:020000040000fa
:0401e00072030000a6
:020000040000fa
:0401e40072030000a2
:020000040000fa
:0401e800720300009e
:020000040000fa
:0401ec00720300009a
:020000040000fa
:0401f0007203000096
:020000040000fa
:0401f4007203000092
:020000040000fa
:0401f800720300008e
:020000040000fa
:0401fc00720300008a
:020000040000fa
:040200007203000085
:020000040000fa
:040204007203000081
:020000040000fa
:04020800720300007d
:020000040000fa
:04020c007203000079
:020000040000fa
:040210007203000075
:020000040000fa
:040214007203000071
:020000040000fa
:04021800720300006d
:020000040000fa
:04021c007203000069
:020000040000fa
:040220007203000065
:020000040000fa
:040224007203000061
:020000040000fa
:04022800720300005d
:020000040000fa
:04022c007203000059
:020000040000fa
:040230007203000055
:020000040000fa
:040234007203000051
:020000040000fa
:04023800720300004d
:020000040000fa
:04023c007203000049
:020000040000fa
:040240007203000045
:020000040000fa
:040244007203000041
:020000040000fa
:04024800720300003d
:020000040000fa
:04024c007203000039
:020000040000fa
:040250007203000035
:020000040000fa
:040254007203000031
:020000040000fa
:04025800720300002d
:020000040000fa
:04025c007203000029
:020000040000fa
:040260007203000025
:020000040000fa
:040264007203000021
:020000040000fa
:04026800720300001d
:020000040000fa
:04026c007203000019
:020000040000fa
:040270007203000015
:020000040000fa
:040274007203000011
:020000040000fa
:04027800720300000d
:020000040000fa
:04027c007203000009
:020000040000fa
:040280007203000005
:020000040000fa
:100400004f0421000eff2c000e01880000000000a8
:10041000000020000000e000020032000001200087
:100420002002880014000700b00007000000e00070
:1004300003003a00401821000100200002003700ac
:100440000000200001002000810f70000100320038
:100450000f000700000020000000e0000200320052
:100460000000020000000000de06020000000000a4
:100470000040da000000fe00200020000000e00044
:1004800002003200100020009001880000000600e9
:10049000a1028800800478000000eb001f003700f4
:1004a000e284440054a0b4009905ba00e2844400f8
:1004b00054a0b4009906ba00e284440054a0b400e9
:1004c0000006eb00476fde00fd07b200ae018800ba
:1004d000636ce10003003a000ad801000000eb0061
:1004e0000e003700606ce10008003a00004deb00a0
:1004f0000a05e800020039003420ec000af0a000f0
:100500008b05e900f9ff3e00040037006168e10057
:10051000010032000086eb000b00070019c7ba008b
:100520000e04e0001905ba0003003a000a00e000da
:10053000dbff3a0000000600fe07b200ae028800b2
:100540008a047800f5ff37000cd0a300e20f4d00bd
:100550001c00390089027800354dba000a05e80010
:10056000020039003420ec000af0a0008b05e900fd
:100570000f003200254dba000a05e80002003900dc
:100580003420ec000af0a0008b05e90008003200de
:100590000c00e0000600320015cdba000a05e800a4
:1005a000020039003420ec000af0a0008b05e900bd
:1005b0008984e80054a0b4000b00e000e2ff3a0098
:1005c000000006009902ba00055d78008b05e9007d
:1005d000f7ff3200c82ade00055d78008b05e900d0
:1005e000f3ff32000c00e000f1ff320019ddba0029
:1005f000eeff37000000fa000108a9000080fa00b1
:10060000004006003600f800809fbe00829fbe00ba
:10061000849fbe00869fbe000000fa000068a9000b
:1006200087050700fd0607000080fa004f03be00a3
:100630004f02be004f01be004f00be003600f90061
:10064000004006003600f800809fbe00829fbe007a
:10065000849fbe00869fbe000000fa000368a900c8
:1006600077050700408080005180800061004000d5
:10067000e08048004080880051808800b202070076
:100680000080fa004f03be004f02be004f01be00c3
:100690004f00be003600f90000400600801f7800c1
:1006a0000000fa0001a8a90000188000d08188008d
:1006b00010188000e081880020188000f0818800f8
:1006c0003018800000828800401880001082880066
:1006d00010c0b30013f0b7000080fa004f0078009c
:1006e000004006000040da000000fe0000000500a7
:1006f00003f0a200889fbe008a9fbe008c1f780076
:10070000180107001f0133006450e1004f00320060
:100710006420e1005200320003826c0007003b00bd
:100720000905d0000306d000820f54000c065d00be
:1007300002003900020032008901780003067800c7
:100740008582550004003d000003fd008103fd008b
:100750008502ea008b854200840f720002003b0094
:1007600060001000e08018006011b8000005eb0088
:100770007a28e1000a00390006007800c75ddd0034
:10078000f707b200878075002d0037008281710065
:100790000a017800610560008180d1000080d300eb
:1007a0008502e900f9ff3b00060440008784480009
:1007b00002003b0060041400e0841c000988a300d0
:1007c000070032008a81710082817100610164003a
:1007d0008904d1000884d3008b05e8001700370096
:1007e0000978a30013003a000b00e0001300340066
:1007f0008b05e9000804440089844c000a44740015
:100800000978a3000d003a000b00e0000700340057
:100810008b05e9000804440089844c0001003a007b
:100820000b0020000978a300f7ff32000001eb0065
:1008300002003700828171000a0178008e000700f3
:100840000cf0a70001f0a000d70037006420e10001
:1008500002003a00838f6c00d70033000801be000d
:100860000200be00d0003700889fbe008a9fbe00f5
:100870008c1f7800bb000700c200330003866c00a9
:100880006450e1002e0032006420e10033003200a9
:100890006150e1002f0032006120e10031003200a0
:1008a00085855500eb07b0000900200008042000f2
:1008b000050037000804440089844c000a00310018
:1008c0000603430087834b000001530081815b00d6
:1008d000f8ff33000203be000800a0000804440033
:1008e00089844c00f6ff3900c639dd0083017300ae
:1008f00001003200130020008904d1000884d300d5
:100900000998a300050032000800a7000300a0001a
:100910008904d1000884d3008b05e8008904d10044
:100920000884d3000001eb000281d20052000700ce
:1009300001f0a1000cf0a70001f0a0009a00370020
:100940006420e1009c0032000801be000200be00ed
:10095000f7ff37006120e100970032006000b80027
:10096000f3ff37000000200001f82700f0ff3700f8
:1009700014002000c7003700f4ff2f00c500370027
:100980000001be00620007000470a70003f0a10090
:100990006509b100160032000d0035006828e1003d
:1009a00006003500f0ff2f00f1ff27000300e000f4
:1009b00013003b000100280000000500000040007b
:1009c000818048008502e900fcff3a0008003700fa
:1009d000f88f420002003c008000eb0000000500a0
:1009e0008100d1000080d3008502e800fcff3a00be
:1009f0000300e00002003b0060001000e0801800ef
:100a0000000006000001be00410007000470a700be
:100a100003f0a10003f8a30013003a006509b10038
:100a200010003200090035006928e100020035009d
:100a300001002800000005000000400081804800ff
:100a40008502e900fcff3a0000000600f88f420032
:100a5000050035008100d1000080d3008502e80048
:100a6000fcff3a00000006008000eb0000000500db
:100a70006011b800a200370081002000618055009d
:100a80000b003d000b00200061fe2f000100e10083
:100a90001d00340082817100610164008904d1006d
:100aa0000884d3000000e800faff3a00710020003b
:100ab0006100640003007000020060000900320061
:100ac00061044400e0844c000988a5000500320060
:100ad0008b05e8006808e10002003a008904d100b3
:100ae0000884d300f20f20000258e10005003d0009
:100af000c75ddd00f907b200898075000800780045
:100b0000000006000bf827008b00780000000500ad
:100b1000c70ade00f107b200f50fb200080032008c
:100b2000e1cf4200020032000170a0002400050065
:100b3000810f700001003200040805004400050028
:100b4000810f700002003a00140005008502e900e0
:100b50000000400081c04800fcff3b000170a00085
:100b6000240005000004be00e9ff07000003be00ea
:100b70000405be000200be00e5ff0700844f7500bb
:100b8000000006000200be006450e10005003600cf
:100b90006420e100020036000968a30001003a0069
:100ba0000800be000160a0004f0678004f05be009f
:100bb0004f04be0000000600f0ff2f00f1ff2700e9
:100bc000f9ff3700889fbe008a9fbe008c1f780007
:100bd000e4ff0700ebff330003866c006450e10084
:100be000240032006420e100270032006150e1005f
:100bf000220032006120e100210032008b8542009a
:100c0000eb07b1000134b800003ab8000804420014
:100c100089844a00013ab8000030b800888040005a
:100c200009014a00040033000000400081804800b0
:100c3000020149008b05e900c909dd00830170004c
:100c40000100320013002000c814de004814dd004b
:100c50004709de001200b200c808de0008847000f8
:100c600085ff070001f0a1000cf0a70001f0a00033
:100c7000cdff37006120e100cfff32000801be0048
:100c80000200be00f7ff37006150e100fcff3a00b0
:100c9000c9ff3700889fbe008a9fbe00841f78006e
:100ca000b0ff07004f00780011003300f0ff2f0065
:100cb000838f6c0006003b00040565000a00a70056
:100cc0000800370009f0a6001000200008003700d7
:100cd000820f5400838f5c00030039001000200055
:100ce00001003e000000200009f0a7000000ea001b
:100cf0004f05be004f04be000000e00000000600eb
:100d0000889fbe008a9fbe000082700004027100ae
:100d100004827100260032000004be000200be0002
:100d20006011b8006b092000950220000182cf00fd
:100d30000a0039000541b1000082cf0007003900e8
:100d40000541b1000982cf00040039000541b1001e
:100d50000882cf00010039000541b1000542520070
:100d6000120032000a003b008281710061016400c0
:100d70008100d1000080d3008984d3000884d3008f
:100d80008b05e8000442e800f7ff3a00070037004f
:100d90000804440089844c00000048008180480019
:100da0008b05e9000442e900f9ff3a0032ff070031
:0c0db0004f05be004f04be00000006000e
:020000040000fa
:100dbc000600fa00881f7800250507006405070067
:100dcc0080030700d804070012c0b3000000200005
:100ddc00011a24003804070022c0b30000002000d0
:100dec00011a240034040700780207005e02070091
:100dfc00f502070064cea80064eea800254ea800fa
:100e0c00010037000000000009050700e14f500009
:100e1c00fcff3a000a05070001050700000f7800e7
:100e2c009e00780066804000100078008000eb0087
:100e3c000cff070032332300330524005eff07004c
:100e4c00020020000358240084fe0700d2cc2c00a2
:100e5c00c304240058ff07001007980021079800ce
:100e6c001e019000ae0190000000200081202400a3
:100e7c007afe070002002000030a240019fe070076
:100e8c0090818800a181880090818000a1818000e0
:100e9c0018c0b30002002000031f2400b1fe07009d
:100eac000000e000010034000044eb000804e00006
:100ebc000200320064cea8000100370064cea90005
:100ecc009e00780068804000100078008000eb00e5
:100edc00e4fe0700323323003305240036ff0700fd
:100eec0002002000035824005cfe0700d2cc2c002a
:100efc00c304240030ff0700100798002107980056
:100f0c001e019000ae019000000020008120240002
:100f1c0052fe070002002000030a2400f1fd070026
:100f2c0070818800818188007081800081818000bf
:100f3c0018c0b30002002000031f240089fe070024
:100f4c000000e000010034000044eb000804e00065
:100f5c000200320064cea8000100370064cea90064
:100f6c009e00780064804000100078008000eb0048
:100f7c00bcfe070032332300330524000eff0700ac
:100f8c00020020000358240034fe0700d2cc2c00b1
:100f9c00c304240008ff07001007980021079800dd
:100fac001e019000ae019000000020008120240062
:100fbc002afe070002002000030a2400c9fd0700d6
:100fcc00508188006181880050818000618180009f
:100fdc0018c0b30002002000031f240061fe0700ac
:100fec000000e000010034000044eb000804e000c5
:100ffc000200320064eea8000100370064eea90084
:10100c001e80e800100078008000eb0095fe0700c1
:10101c003233230033052400e7fe070002002000d2
:10102c00035824000dfe0700d2cc2c00c30424006e
:10103c00e1fe070010079800210798001e019000a0
:10104c00ae019000000020008120240003fe070068
:10105c0002002000030a2400a2fd07003081880052
:10106c0041818800308180004181800018c0b3002c
:10107c0002002000031f24003afe07000000e000dd
:10108c00010034000044eb000804e00002003200d0
:10109c00254ea80001003700254ea9001e0078003f
:1010ac00100078008000eb006efe07003233230046
:1010bc0033052400c0fe0700020020000358240062
:1010cc00e6fd0700d2cc2c00c3042400bafe0700b6
:1010dc0010079800210798001e019000ae019000a7
:1010ec000000200081202400dcfd0700020020000d
:1010fc00030a24007bfd0700b0818800c1818800b1
:10110c00b0818000c181800018c0b30002002000b3
:10111c00031f240013fe07000000e0000100340050
:10112c000044eb000804e00002003200254ea80049
:10113c0035ff3700254ea90033ff37000000fa00b9
:10114c0001d0bf000080fb00cf80de003201200008
:10115c0003002000820f5000838f580080003e0057
:10116c0000060100130037001c0037002500370073
:10117c002f003700300037003900370046003700a9
:10118c004f0037005c0037006600370067003700ff
:10119c0071003700720037007100370070003700a3
:1011ac006f00370048003700510037002e00370021
:1011bc00370037000830ef000a30ef0022c0b300d0
:1011cc006000b8003c03070012c0b3006000b80018
:1011dc003903070010c0b30001f0b7004280800053
:1011ec0053808000803e200001002000800f5100c1
:1011fc00818f59005d00360020c0b30001f0b700ac
:10120c005b00370022c0b30000002000011a24004c
:10121c002903070012c0b30000002000011a2400ab
:10122c002503070030c0b30001f0b70050003700b1
:10123c00510007004e00370022c0b3000000200010
:10124c00011a24001c03070012c0b3006000b80090
:10125c001903070050c0b30001f0b7004400370079
:10126c00450007004200370022c0b30000002000f8
:10127c00012224001003070012c0b3006000b80064
:10128c000d03070050c0b30001f0b7003800370061
:10129c00390007003600370022c0b3006000b800e8
:1012ac000503070012c0b30000002000011a24003f
:1012bc000103070070c0b30001f0b7002c00370029
:1012cc002d0007002a00370022c0b3006000b800d0
:1012dc00f902070012c0b300000020000122240014
:1012ec00f502070070c0b30001f0b7002000370012
:1012fc00210007001e00370022c0b30000002000b0
:10130c0001172400ec02070012c0b30000002000fb
:10131c0001172c00e802070090c0b30001f0b700e1
:10132c0013003700140007001100370022c0b3006f
:10133c000000200001172c00df02070012c0b300d0
:10134c000000200001172400db020700b0c0b3002e
:10135c0001f0b70006003700070007000400370053
:10136c000170ef00000000000100370000000000d9
:10137c000080fa00000006000200fa00881f7800c6
:10138c00708180008181800018c0b30002002000b1
:10139c00831c240073fd07000000e00001003500f1
:1013ac000044eb000804e0000300320010c0b3005e
:1013bc0002f0b700010037000270ef00908180004e
:1013cc00a181800018c0b300020020000317240084
:1013dc0064fd07000000e000010035000044eb0054
:1013ec000804e0000300320010c0b30003f0b700a3
:1013fc00010037000370ef003081800041818000d4
:10140c0018c0b30002002000831c240055fd070007
:10141c000000e000010035000044eb000804e0008f
:10142c000300320010c0b30004f0b7000100370015
:10143c000470ef00b0818000c181800018c0b3003f
:10144c00020020000317240046fd07000000e00006
:10145c00010035000044eb000804e00003003200fa
:10146c0010c0b30005f0b700010037000570ef00a5
:10147c00508180006181800018c0b3000200200000
:10148c00031f240037fd07000000e00001003500b9
:10149c000044eb000804e0000300320010c0b3006d
:1014ac0006f0b700010037000670ef0003d0bf0054
:1014bc000080fb004400dd000000e00012003a0058
:1014cc0002d0bf000080fb004300dd000000e00004
:1014dc000d003a0006d0bf000080fb004200dd008a
:1014ec000000e00008003a0004d0bf000080fb00c0
:1014fc00000040000000e00003003a0005d0bf00ef
:10150c000004e0000200320010002000010037004f
:10151c000000eb00004f78001e80fb00cf80de0047
:10152c00f201200003002000820f5000838f58002e
:10153c0081003e00000601007c0037004b003700a4
:10154c0062003700310037006c0037003b00370079
:10155c0052003700210037006e0037003d00370085
:10156c0054003700230037005e0037002d00370091
:10157c00440037001300370069003700380037008b
:10158c004f0037001e003700590037002800370085
:10159c003f0037000e0037005b0037002a00370091
:1015ac0041003700100037004b0037001a0037009d
:1015bc003100370000003700a0c0b30000f0b700c6
:1015cc005d00370080c0b30000f0b7005a00370050
:1015dc0080c0b30000f0b7005700370020c1b30043
:1015ec0000f0b70054003700a0c0b30000f0b70003
:1015fc005100370080c0b30000f0b7004e00370038
:10160c0040c0b30000f0b7004b00370040c0b3003f
:10161c0000f0b70048003700a0c0b30000f0b700de
:10162c0045003700a0c0b30000f0b70042003700ff
:10163c00a0c0b30000f0b7003f00370020c1b300da
:10164c0000f0b7003c00370060c0b30000f0b700fa
:10165c003900370060c0b30000f0b7003600370027
:10166c0020c0b30000f0b7003300370060c0b300f7
:10167c0000f0b70030003700a0c0b30000f0b70096
:10168c002d003700a0c0b30000f0b7002a003700cf
:10169c00a0c0b30000f0b7002700370020c1b30092
:1016ac0000f0b70024003700a0c0b30000f0b70072
:1016bc002100370080c0b30000f0b7001e003700d7
:1016cc0040c0b30000f0b7001b00370040c0b300af
:1016dc0000f0b7001800370000c1b30000f0b700ed
:1016ec001500370000c1b30000f0b700120037003e
:1016fc0000c1b30000f0b7000f00370040c0b300ca
:10170c0000f0b7000c00370060c0b30000f0b70069
:10171c000900370060c0b30000f0b70006003700c6
:10172c0060c0b30000f0b7000300370020c0b30066
:10173c0000f0b7000000000000d0bf008080fb006c
:10174c0001d0bf000080fb000000e900808f50003a
:10175c000200320000d0bf0001f0b7004f04780047
:10176c000080fa00000006000000fa0013e1a90056
:10177c0011e1a9001061a8001021a90081088000c6
:10178c00f0fc2f0000806000800888000a21ef0028
:10179c000621ef00404c20007008880000402b0010
:1017ac00600888002142800080ff2f0000806000cc
:1017bc000000a000204288000108a9002108a80010
:1017cc0011e1a8000080fa00000006000000fa00f9
:1017dc0005e1a9000421a9000068a9002068a8005f
:1017ec0005e1a8000000200081242400020007006d
:1017fc000080fa00000006000400fa00881f780040
:10180c00008fbe0021088000f0fc2f0000806000db
:10181c00200888001e0178009e01900000682900b5
:10182c0081c124000dfc070018c0b30002f02f008a
:10183c00f37724004dfc07000000e00001003c00a1
:10184c000044eb000804e000540032002108800042
:10185c00f0fc2f00008060000040a00020088800f1
:10186c001e0178009e0190000068290081c12400af
:10187c00fafb07000200200003102400f7fb07000e
:10188c0018c0b30002f02f00f377240037fc0700d8
:10189c000000e00001003c000044eb000804e00004
:1018ac003200320021088000f0fc2f000080600024
:1018bc000050a000200888001e0178009e019000b6
:1018cc000068290081c12400e4fb0700020020000d
:1018dc0003282400e1fb070018c0b30002f02f001e
:1018ec00f377240021fc07000000e00001003c001d
:1018fc000044eb000804e0001000320021088000d6
:10190c000003200001007000200888001e017800f0
:10191c009e0190000068290081c12400cffb0700c4
:10192c000200200003382400ccfb070011fc070048
:10193c000000780010088800200037001e01780095
:10194c009e0190000068290081c12400c3fb0700a0
:10195c000200200003282400c0fb070005fc070040
:10196c000000780010088800140037001e01780071
:10197c009e0190000068290081c12400b7fb07007c
:10198c000200200003102400b4fb0700f9fb070041
:10199c000000780010088800080037001e0178004d
:1019ac009e0190000068290081c12400abfb070058
:1019bc00f0fb070000007800100888004f04780046
:1019cc000080fa00000006000000fa001fe1a900e8
:1019dc001e21a9000368a9002368a8001fe1a80024
:1019ec0000002000a1472400020007000080fa003c
:1019fc00000006000400fa00881f7800008fbe006b
:101a0c00f1088000f0fc2f0000806000f0088800d6
:101a1c001e0178009e0190000068290081c12400fd
:101a2c008efb070018c0b30002f02f00f3772400e0
:101a3c00cefb07000000e00001003c000044eb007e
:101a4c000804e00054003200f1088000f0fc2f0084
:101a5c00008060000040a000f00888001e017800a3
:101a6c009e0190000068290081c124007bfb0700c7
:101a7c00020020000310240078fb070018c0b300fc
:101a8c0002f02f00f3772400b8fb07000000e00001
:101a9c0001003c000044eb000804e000320032007e
:101aac00f1088000f0fc2f00008060000050a000c6
:101abc00f00888001e0178009e0190000068290043
:101acc0081c1240065fb07000200200003282400cc
:101adc0062fb070018c0b30002f02f00f37724005c
:101aec00a2fb07000000e00001003c000044eb00fa
:101afc000804e00010003200f10880000003200010
:101b0c0001007000f00888001e0178009e01900012
:101b1c000068290081c1240050fb0700020020004e
:101b2c00033824004dfb070092fb070000007800ef
:101b3c0010088800200037001e0178009e019000dc
:101b4c000068290081c1240044fb0700020020002a
:101b5c000328240041fb070086fb070000007800e7
:101b6c0010088800140037001e0178009e019000b8
:101b7c000068290081c1240038fb07000200200006
:101b8c000310240035fb07007afb070000007800e7
:101b9c0010088800080037001e0178009e01900094
:101bac000068290081c124002cfb070071fb070091
:101bbc0000007800100888004f0478000080fa00bc
:101bcc00000006000000fa001160800080ff2f006a
:101bdc00008060001060880000fa200020608800ff
:101bec0023aca800238ca80011618000f03f2f00cb
:101bfc000080600000a0a000106188003000200070
:101c0c0020618800c3aca800c38ca80011668000ba
:101c1c00f03f2f000080600000a0a000106688003c
:101c2c00300020002066880001eca8000080fa003b
:101c3c00000006000000fa00889fbe00148180009e
:101c4c0025818000f08080000181800018c0b300e5
:101c5c000001be000400be0042fb07000000e000d3
:101c6c00010035000044eb000804e0000d003200d8
:101c7c00f88080000981800014818000258180001b
:101c8c0070808000818080000001be000400be00d6
:101c9c0095fa07000801be00ca00070010818800f1
:101cac00218188001481800025818000f0808000d3
:101cbc000181800018c0b3000001be000400be000a
:101ccc002afb07000000e00001003c000044eb0090
:101cdc000804e0000d003200f880800009818000cb
:101cec0014818000258180007080800081808000bc
:101cfc000001be000400be007afa07000801be0015
:101d0c0098000700108188002181880010818000d4
:101d1c002181800018c0b3006011b80013fb0700cc
:101d2c000000e00001003c000044eb000804e0006f
:101d3c0004003200c3cca90024eea800c3eca80018
:101d4c0003003700c3eca90024cea800c3cca80024
:101d5c0010818000218180006c00070002002000af
:101d6c000322240094fb070023fb070000007800eb
:101d7c0030668800d4808000e5808000b0808000d0
:101d8c00c180800018c0b3000001be000400be007a
:101d9c00f4fa07000000e000010035000044eb00fd
:101dac000804e0000d003200b8808000c98080007b
:101dbc00d4808000e580800070808000818080006d
:101dcc000001be000400be0047fa07000801be0077
:101ddc007c000700d0808800e1808800d4808000df
:101dec00e5808000b0808000c180800018c0b30006
:101dfc000001be000400be00dcfa07000000e00099
:101e0c0001003c000044eb000804e0000d0032002f
:101e1c00b8808000c9808000d4808000e58080007c
:101e2c0070808000818080000001be000400be0034
:101e3c002cfa07000801be004a000700d080880079
:101e4c00e1808800d0808000e180800018c0b30061
:101e5c006011b800c5fa07000000e00001003c006a
:101e6c000044eb000804e0000400320023cca9007d
:101e7c0015eea80023eca8000300370023eca90002
:101e8c0015cea80023cca800d0808000e180800073
:101e9c001e000700020020000322240046fb07005e
:101eac00d5fa070000007800306188004f04be00ae
:101ebc000080fa00000006000600fa00008fbe0049
:101ecc00424798004e409000e14f500005003a0008
:101edc001e0178009e019000b2808800c3808800ab
:101eec00080037004e409000e24f500005003a00c9
:101efc001e0078009e00900001f0a200f080880087
:101f0c00018188000080fa00000006000400fa003d
:101f1c00881f7800008fbe0018c0b3006011b80095
:101f2c001e0078009e00900090fa07000000e00070
:101f3c0001003d000044eb000804e0000300320007
:101f4c001e0078009e009000030037001e007800f1
:101f5c009e00900001f0a2004f0478000080fa006f
:101f6c00000006000800fa00881f7800008fbe00f1
:101f7c00220798003307980018c0b3002e01900078
:101f8c00be0190001e0078009e00900077fa0700ba
:101f9c000000e00001003c000044eb000804e000fd
:101fac00030032001e0078009e00900002003700f3
:101fbc002e009000be0090004f0478000080fa00c4
:101fcc00000006000800fa00881f7800008fbe0091
:101fdc00220798003307980018c0b3002e01900018
:101fec00be0190001e0078009e0090005dfa070074
:101ffc000000e000010035000044eb000804e000a4
:10200c00030032001e0078009e0090000200370092
:10201c002e009000be0090004f0478000080fa0063
:10202c00000006000c00fa00881f7800008fbe002c
:10203c00220798003307980044079800550798002a
:10204c0018c0b3004e019000de0190001e00780015
:10205c009e00900045fa07000000e00001003c00e3
:10206c000044eb000804e000040032004e01900034
:10207c00de019000028fbe000e00370018c0b300c6
:10208c002e019000be0190001e0078009e00900072
:10209c0034fa07000000e000010035000044eb00ba
:1020ac000804e000030032002e019000be019000f5
:1020bc00028fbe001e0078009e0090004f04780036
:1020cc000080fa00000006000400fa00008fbe0039
:1020dc00b2fd2000930424001e0078009e009000a6
:1020ec00def907000200200043332400b2fa070097
:1020fc000080fa00000006000400fa00008fbe0009
:10210c00b2fd2000930424001e0078009e00900075
:10211c00a9fa07000200200043332400cff907007e
:10212c000080fa00000006000000fa0021e3a9007c
:10213c002143a80001198000f0cf2f00008060001f
:10214c00001988002043a90001198000000e20000e
:10215c00010070000019880011198000f0ff2100a7
:10216c0000806000101988002343a800111980001a
:10217c00f0cf2f000080600010198800111980002a
:10218c0030f82f00008060000040a000101988007b
:10219c002203a9002223a90025e3a900f0c0b30063
:1021ac0024e3b70021198000f00f2e00808060001e
:1021bc0000f0200001007000201988003303a900f2
:1021cc002e0ea8002f6ea8006f2ea8004feea800b0
:1021dc001e2ea8003063a80030c3a8003163a800ed
:1021ec0031e3a8002e03a8004119800000fc2f0049
:1021fc00008060004019880028e3a90001a8a9000c
:10220c0021a8a80021e3a8000080fa000000060025
:10221c000000fa002023a8000080fa00000006004d
:10222c000000fa00a00321000080fa000000060064
:10223c000000fa0013d0bf000080fa000000060076
:10224c000000fa001370ef000080fa000000060096
:10225c000000fa00f0032000303a8800213a800098
:10226c00f0f32f0000806000203a8800213a8000b3
:10227c0000fe2f00008060000000a000203a8800c3
:10228c001200200080072000a109200033742000d8
:10229c00804978008149780082497800103a8000a2
:1022ac00000178000200a0006004200071052000ed
:1022bc002374200080497800814978008249780095
:1022cc0000000000113a80000000270080806000b0
:1022dc0000002100808f5000faff3a00000000003f
:1022ec00113a800000022000008060000000e00035
:0c22fc00fbff32000080fa00000006002a
:020000040000fa
:102308000010000008000000800000000810000015
:1023180006000000800000001410000026000000e5
:10232800800000000e100000040000008200000081
:102338000000a000410000003a1000000a00000060
:102348008000000012100000020000008000000061
:042358000000000081
:020000040000fa
:10235c000000fa000e2eef001e2eef002e2eef00c6
:10236c003e2eef004e2eef005e2eef006e2eef0095
:10237c00214ea90060cea90060eea90011cea900e3
:10238c0011eea90020cea90020eea9000080fa00d1
:04239c000000060037
:020000040000fa
:02000004000af0
:04afe000cfff00009f
:020000040000fa
:02000004000af0
:04afe400ffff00006b
:020000040000fa
:02000004000af0
:04afe8007fff0000e7
:020000040000fa
:02000004000af0
:04afec005fff000003
:020000040000fa
:02000004000af0
:04aff00038ff000026
:020000040000fa
:02000004000af0
:04aff400ffff00005b
:00000001FF
