:020000040000fa
:080000000002040000000000f2
:020000040000fa
:04000800720300007f
:020000040000fa
:04000c00720300007b
:020000040000fa
:040010007203000077
:020000040000fa
:040014007203000073
:020000040000fa
:04001800720300006f
:020000040000fa
:04001c00720300006b
:020000040000fa
:040020007203000067
:020000040000fa
:040024007203000063
:020000040000fa
:04002800720300005f
:020000040000fa
:04002c00720300005b
:020000040000fa
:040030007203000057
:020000040000fa
:0400340002030000c3
:020000040000fa
:04003800720300004f
:020000040000fa
:04003c00720300004b
:020000040000fa
:040040007203000047
:020000040000fa
:040044007203000043
:020000040000fa
:04004800fa020000b8
:020000040000fa
:04004c00720300003b
:020000040000fa
:040050007203000037
:020000040000fa
:040054007203000033
:020000040000fa
:04005800720300002f
:020000040000fa
:04005c004e0300004f
:020000040000fa
:040060007203000027
:020000040000fa
:040064007203000023
:020000040000fa
:04006800720300001f
:020000040000fa
:04006c00720300001b
:020000040000fa
:040070007203000017
:020000040000fa
:040074007203000013
:020000040000fa
:04007800720300000f
:020000040000fa
:04007c00720300000b
:020000040000fa
:040080007203000007
:020000040000fa
:040084007203000003
:020000040000fa
:0400880072030000ff
:020000040000fa
:04008c0072030000fb
:020000040000fa
:0400900072030000f7
:020000040000fa
:040094002203000043
:020000040000fa
:0400980072030000ef
:020000040000fa
:04009c0072030000eb
:020000040000fa
:0400a00072030000e7
:020000040000fa
:0400a40072030000e3
:020000040000fa
:0400a80072030000df
:020000040000fa
:0400ac0072030000db
:020000040000fa
:0400b00072030000d7
:020000040000fa
:0400b40072030000d3
:020000040000fa
:0400b80072030000cf
:020000040000fa
:0400bc0072030000cb
:020000040000fa
:0400c00072030000c7
:020000040000fa
:0400c40072030000c3
:020000040000fa
:0400c80072030000bf
:020000040000fa
:0400cc0072030000bb
:020000040000fa
:0400d00072030000b7
:020000040000fa
:0400d40072030000b3
:020000040000fa
:0400d80072030000af
:020000040000fa
:0400dc0072030000ab
:020000040000fa
:0400e00072030000a7
:020000040000fa
:0400e40072030000a3
:020000040000fa
:0400e800720300009f
:020000040000fa
:0400ec00720300009b
:020000040000fa
:0400f0007203000097
:020000040000fa
:0400f4007203000093
:020000040000fa
:0400f800720300008f
:020000040000fa
:0400fc00720300008b
:020000040000fa
:040100007203000086
:020000040000fa
:040104007203000082
:020000040000fa
:04010800720300007e
:020000040000fa
:04010c00720300007a
:020000040000fa
:040110007203000076
:020000040000fa
:040114007203000072
:020000040000fa
:04011800720300006e
:020000040000fa
:04011c00720300006a
:020000040000fa
:040120007203000066
:020000040000fa
:040124007203000062
:020000040000fa
:04012800720300005e
:020000040000fa
:04012c00720300005a
:020000040000fa
:040130007203000056
:020000040000fa
:040134007203000052
:020000040000fa
:04013800720300004e
:020000040000fa
:04013c00720300004a
:020000040000fa
:040140007203000046
:020000040000fa
:040144007203000042
:020000040000fa
:04014800720300003e
:020000040000fa
:04014c00720300003a
:020000040000fa
:040150007203000036
:020000040000fa
:040154007203000032
:020000040000fa
:04015800720300002e
:020000040000fa
:04015c00720300002a
:020000040000fa
:040160007203000026
:020000040000fa
:040164007203000022
:020000040000fa
:04016800720300001e
:020000040000fa
:04016c00720300001a
:020000040000fa
:040170007203000016
:020000040000fa
:040174007203000012
:020000040000fa
:04017800720300000e
:020000040000fa
:04017c00720300000a
:020000040000fa
:040180007203000006
:020000040000fa
:040184007203000002
:020000040000fa
:0401880072030000fe
:020000040000fa
:04018c0072030000fa
:020000040000fa
:0401900072030000f6
:020000040000fa
:0401940072030000f2
:020000040000fa
:0401980072030000ee
:020000040000fa
:04019c0072030000ea
:020000040000fa
:0401a00072030000e6
:020000040000fa
:0401a40072030000e2
:020000040000fa
:0401a80072030000de
:020000040000fa
:0401ac0072030000da
:020000040000fa
:0401b00072030000d6
:020000040000fa
:0401b40072030000d2
:020000040000fa
:0401b80072030000ce
:020000040000fa
:0401bc0072030000ca
:020000040000fa
:0401c00072030000c6
:020000040000fa
:0401c40072030000c2
:020000040000fa
:0401c80072030000be
:020000040000fa
:0401cc0072030000ba
:020000040000fa
:0401d00072030000b6
:020000040000fa
:0401d40072030000b2
:020000040000fa
:0401d80072030000ae
:020000040000fa
:0401dc0072030000aa
:020000040000fa
:0401e00072030000a6
:020000040000fa
:0401e40072030000a2
:020000040000fa
:0401e800720300009e
:020000040000fa
:0401ec00720300009a
:020000040000fa
:0401f0007203000096
:020000040000fa
:0401f4007203000092
:020000040000fa
:0401f800720300008e
:020000040000fa
:0401fc00720300008a
:020000040000fa
:040200007203000085
:020000040000fa
:040204007203000081
:020000040000fa
:04020800720300007d
:020000040000fa
:04020c007203000079
:020000040000fa
:040210007203000075
:020000040000fa
:040214007203000071
:020000040000fa
:04021800720300006d
:020000040000fa
:04021c007203000069
:020000040000fa
:040220007203000065
:020000040000fa
:040224007203000061
:020000040000fa
:04022800720300005d
:020000040000fa
:04022c007203000059
:020000040000fa
:040230007203000055
:020000040000fa
:040234007203000051
:020000040000fa
:04023800720300004d
:020000040000fa
:04023c007203000049
:020000040000fa
:040240007203000045
:020000040000fa
:040244007203000041
:020000040000fa
:04024800720300003d
:020000040000fa
:04024c007203000039
:020000040000fa
:040250007203000035
:020000040000fa
:040254007203000031
:020000040000fa
:04025800720300002d
:020000040000fa
:04025c007203000029
:020000040000fa
:040260007203000025
:020000040000fa
:040264007203000021
:020000040000fa
:04026800720300001d
:020000040000fa
:04026c007203000019
:020000040000fa
:040270007203000015
:020000040000fa
:040274007203000011
:020000040000fa
:04027800720300000d
:020000040000fa
:04027c007203000009
:020000040000fa
:040280007203000005
:020000040000fa
:10040000ef0321000eff2c000e0188000000000009
:10041000000020000000e000020032000001200087
:100420002002880014000700b00007000000e00070
:1004300003003a00002121000100200002003700e3
:100440000000200001002000810f70000100320038
:100450000f000700000020000000e0000200320052
:100460000000020000000000de06020000000000a4
:100470000040da000000fe00200020000000e00044
:1004800002003200100020009001880000000600e9
:10049000a1028800800478000000eb001f003700f4
:1004a000e284440054a0b4009905ba00e2844400f8
:1004b00054a0b4009906ba00e284440054a0b400e9
:1004c0000006eb00476fde00fd07b200ae018800ba
:1004d000636ce10003003a000ad801000000eb0061
:1004e0000e003700606ce10008003a00004deb00a0
:1004f0000a05e800020039003420ec000af0a000f0
:100500008b05e900f9ff3e00040037006168e10057
:10051000010032000086eb000b00070019c7ba008b
:100520000e04e0001905ba0003003a000a00e000da
:10053000dbff3a0000000600fe07b200ae028800b2
:100540008a047800f5ff37000cd0a300e20f4d00bd
:100550001c00390089027800354dba000a05e80010
:10056000020039003420ec000af0a0008b05e900fd
:100570000f003200254dba000a05e80002003900dc
:100580003420ec000af0a0008b05e90008003200de
:100590000c00e0000600320015cdba000a05e800a4
:1005a000020039003420ec000af0a0008b05e900bd
:1005b0008984e80054a0b4000b00e000e2ff3a0098
:1005c000000006009902ba00055d78008b05e9007d
:1005d000f7ff3200c82ade00055d78008b05e900d0
:1005e000f3ff32000c00e000f1ff320019ddba0029
:1005f000eeff37000000fa000108a9000080fa00b1
:10060000004006003600f800809fbe00829fbe00ba
:10061000849fbe00869fbe000000fa000068a9000b
:10062000cd050700430707000080fa004f03be0016
:100630004f02be004f01be004f00be003600f90061
:10064000004006003600f800809fbe00829fbe007a
:10065000849fbe00869fbe000000fa000368a900c8
:10066000bd0507000080800011808000610040000f
:10067000e08048000080880011808800b2020700f6
:100680000080fa004f03be004f02be004f01be00c3
:100690004f00be003600f90000400600801f7800c1
:1006a0000000fa0001a8a90000188000a0818800bd
:1006b00010188000b081880020188000c081880058
:1006c00030188000d081880040188000e0818800c8
:1006d00010c0b3000df0b7000080fa004f007800a2
:1006e000004006000040da000000fe0000000500a7
:1006f00003f0a200889fbe008a9fbe008c1f780076
:10070000180107001f0133006450e1004f00320060
:100710006420e1005200320003826c0007003b00bd
:100720000905d0000306d000820f54000c065d00be
:1007300002003900020032008901780003067800c7
:100740008582550004003d000003fd008103fd008b
:100750008502ea008b854200840f720002003b0094
:1007600060001000e08018006011b8000005eb0088
:100770007a28e1000a00390006007800c75ddd0034
:10078000f707b200878075002d0037008281710065
:100790000a017800610560008180d1000080d300eb
:1007a0008502e900f9ff3b00060440008784480009
:1007b00002003b0060041400e0841c000988a300d0
:1007c000070032008a81710082817100610164003a
:1007d0008904d1000884d3008b05e8001700370096
:1007e0000978a30013003a000b00e0001300340066
:1007f0008b05e9000804440089844c000a44740015
:100800000978a3000d003a000b00e0000700340057
:100810008b05e9000804440089844c0001003a007b
:100820000b0020000978a300f7ff32000001eb0065
:1008300002003700828171000a0178008e000700f3
:100840000cf0a70001f0a000d70037006420e10001
:1008500002003a00838f6c00d70033000801be000d
:100860000200be00d0003700889fbe008a9fbe00f5
:100870008c1f7800bb000700c200330003866c00a9
:100880006450e1002e0032006420e10033003200a9
:100890006150e1002f0032006120e10031003200a0
:1008a00085855500eb07b0000900200008042000f2
:1008b000050037000804440089844c000a00310018
:1008c0000603430087834b000001530081815b00d6
:1008d000f8ff33000203be000800a0000804440033
:1008e00089844c00f6ff3900c639dd0083017300ae
:1008f00001003200130020008904d1000884d300d5
:100900000998a300050032000800a7000300a0001a
:100910008904d1000884d3008b05e8008904d10044
:100920000884d3000001eb000281d20052000700ce
:1009300001f0a1000cf0a70001f0a0009a00370020
:100940006420e1009c0032000801be000200be00ed
:10095000f7ff37006120e100970032006000b80027
:10096000f3ff37000000200001f82700f0ff3700f8
:1009700014002000c7003700f4ff2f00c500370027
:100980000001be00620007000470a70003f0a10090
:100990006509b100160032000d0035006828e1003d
:1009a00006003500f0ff2f00f1ff27000300e000f4
:1009b00013003b000100280000000500000040007b
:1009c000818048008502e900fcff3a0008003700fa
:1009d000f88f420002003c008000eb0000000500a0
:1009e0008100d1000080d3008502e800fcff3a00be
:1009f0000300e00002003b0060001000e0801800ef
:100a0000000006000001be00410007000470a700be
:100a100003f0a10003f8a30013003a006509b10038
:100a200010003200090035006928e100020035009d
:100a300001002800000005000000400081804800ff
:100a40008502e900fcff3a0000000600f88f420032
:100a5000050035008100d1000080d3008502e80048
:100a6000fcff3a00000006008000eb0000000500db
:100a70006011b800a200370081002000618055009d
:100a80000b003d000b00200061fe2f000100e10083
:100a90001d00340082817100610164008904d1006d
:100aa0000884d3000000e800faff3a00710020003b
:100ab0006100640003007000020060000900320061
:100ac00061044400e0844c000988a5000500320060
:100ad0008b05e8006808e10002003a008904d100b3
:100ae0000884d300f20f20000258e10005003d0009
:100af000c75ddd00f907b200898075000800780045
:100b0000000006000bf827008b00780000000500ad
:100b1000c70ade00f107b200f50fb200080032008c
:100b2000e1cf4200020032000170a0002400050065
:100b3000810f700001003200040805004400050028
:100b4000810f700002003a00140005008502e900e0
:100b50000000400081c04800fcff3b000170a00085
:100b6000240005000004be00e9ff07000003be00ea
:100b70000405be000200be00e5ff0700844f7500bb
:100b8000000006000200be006450e10005003600cf
:100b90006420e100020036000968a30001003a0069
:100ba0000800be000160a0004f0678004f05be009f
:100bb0004f04be0000000600f0ff2f00f1ff2700e9
:100bc000f9ff3700889fbe008a9fbe008c1f780007
:100bd000e4ff0700ebff330003866c006450e10084
:100be000240032006420e100270032006150e1005f
:100bf000220032006120e100210032008b8542009a
:100c0000eb07b1000134b800003ab8000804420014
:100c100089844a00013ab8000030b800888040005a
:100c200009014a00040033000000400081804800b0
:100c3000020149008b05e900c909dd00830170004c
:100c40000100320013002000c814de004814dd004b
:100c50004709de001200b200c808de0008847000f8
:100c600085ff070001f0a1000cf0a70001f0a00033
:100c7000cdff37006120e100cfff32000801be0048
:100c80000200be00f7ff37006150e100fcff3a00b0
:100c9000c9ff3700889fbe008a9fbe00841f78006e
:100ca000b0ff07004f00780011003300f0ff2f0065
:100cb000838f6c0006003b00040565000a00a70056
:100cc0000800370009f0a6001000200008003700d7
:100cd000820f5400838f5c00030039001000200055
:100ce00001003e000000200009f0a7000000ea001b
:100cf0004f05be004f04be000000e00000000600eb
:100d0000889fbe008a9fbe000082700004027100ae
:100d100004827100260032000004be000200be0002
:100d20006011b8006b092000950220000182cf00fd
:100d30000a0039000541b1000082cf0007003900e8
:100d40000541b1000982cf00040039000541b1001e
:100d50000882cf00010039000541b1000542520070
:100d6000120032000a003b008281710061016400c0
:100d70008100d1000080d3008984d3000884d3008f
:100d80008b05e8000442e800f7ff3a00070037004f
:100d90000804440089844c00000048008180480019
:100da0008b05e9000442e900f9ff3a0032ff070031
:0c0db0004f05be004f04be00000006000e
:020000040000fa
:100dbc000600fa00881f78006b050700aa050700db
:100dcc00c60307001e05070012c0b3000000200078
:100ddc00011a24007e04070022c0b300000020008a
:100dec00011a24007a040700be020700a4020700bf
:100dfc003b03070064cea80064eea800254ea800b3
:100e0c0001003700000000004f050700e14f5000c3
:100e1c00fcff3a005005070047050700000f78005b
:100e2c009e00780066804000100078008000eb0087
:100e3c000cff070032332300330524005eff07004c
:100e4c00020020000358240084fe0700d2cc2c00a2
:100e5c00c304240058ff07001007980021079800ce
:100e6c001e019000ae0190000000200081202400a3
:100e7c007afe070002002000030a240019fe070076
:100e8c0060818800718188006081800071818000a0
:100e9c0018c0b30002002000031f2400b1fe07009d
:100eac000000e000010034000044eb000804e00006
:100ebc000200320064cea8000100370064cea90005
:100ecc009e00780068804000100078008000eb00e5
:100edc00e4fe0700323323003305240036ff0700fd
:100eec0002002000035824005cfe0700d2cc2c002a
:100efc00c304240030ff0700100798002107980056
:100f0c001e019000ae019000000020008120240002
:100f1c0052fe070002002000030a2400f1fd070026
:100f2c00408188005181880040818000518180007f
:100f3c0018c0b30002002000031f240089fe070024
:100f4c000000e000010034000044eb000804e00065
:100f5c000200320064cea8000100370064cea90064
:100f6c009e00780064804000100078008000eb0048
:100f7c00bcfe070032332300330524000eff0700ac
:100f8c00020020000358240034fe0700d2cc2c00b1
:100f9c00c304240008ff07001007980021079800dd
:100fac001e019000ae019000000020008120240062
:100fbc002afe070002002000030a2400c9fd0700d6
:100fcc00208188003181880020818000318180005f
:100fdc0018c0b30002002000031f240061fe0700ac
:100fec000000e000010034000044eb000804e000c5
:100ffc000200320064eea8000100370064eea90084
:10100c001e80e800100078008000eb0095fe0700c1
:10101c003233230033052400e7fe070002002000d2
:10102c00035824000dfe0700d2cc2c00c30424006e
:10103c00e1fe070010079800210798001e019000a0
:10104c00ae019000000020008120240003fe070068
:10105c0002002000030a2400a2fd07000081880082
:10106c0011818800008180001181800018c0b300bc
:10107c0002002000031f24003afe07000000e000dd
:10108c00010034000044eb000804e00002003200d0
:10109c00254ea80001003700254ea9001e0078003f
:1010ac00100078008000eb006efe07003233230046
:1010bc0033052400c0fe0700020020000358240062
:1010cc00e6fd0700d2cc2c00c3042400bafe0700b6
:1010dc0010079800210798001e019000ae019000a7
:1010ec000000200081202400dcfd0700020020000d
:1010fc00030a24007bfd0700808188009181880011
:10110c00808180009181800018c0b3000200200013
:10111c00031f240013fe07000000e0000100340050
:10112c000044eb000804e00002003200254ea80049
:10113c0035ff3700254ea90033ff37000000fa00b9
:10114c000bd0bf000080fb00cf80de00b20020007f
:10115c0003002000820f5000838f580060003e0077
:10116c00000601000b003700140037001d0037008b
:10117c0027003700280037003100370032003700d5
:10118c003b0037003c003700460037004700370073
:10119c00510037000030ef000230ef0022c0b300e6
:1011ac006000b8008a03070012c0b3006000b800ea
:1011bc008703070010c0b3000bf0b700028080005b
:1011cc0013808000803e200001002000800f510021
:1011dc00818f59004500360020c0b3000bf0b700da
:1011ec004300370022c0b30000002000011a240085
:1011fc007703070012c0b30000002000011a24007e
:10120c007303070030c0b3000bf0b7003800370091
:10121c00390007003600370022c0b3000000200060
:10122c00011a24006a03070012c0b3006000b80062
:10123c006703070050c0b3000bf0b7002c00370059
:10124c002d0007002a00370022c0b3006000b80050
:10125c005f03070012c0b30000002000011a240035
:10126c005b03070070c0b3000bf0b7002000370021
:10127c00210007001e00370022c0b3000000200030
:10128c00011724005203070012c0b3000000200015
:10129c0001172c004e03070090c0b3000bf0b700f1
:1012ac0013003700140007001100370022c0b300f0
:1012bc000000200001172c004503070012c0b300ea
:1012cc00000020000117240041030700b0c0b30048
:1012dc000bf0b700060037000700070004003700ca
:1012ec000b70ef0000000000010037000000000050
:1012fc000080fa00000006000200fa00881f780047
:10130c000040eb00004f78008081800091818000cc
:10131c0018c0b30002002000031f240091fd070039
:10132c000000e000010035000044eb000804e00080
:10133c002f003200008180001181800018c0b300a2
:10134c0002002000031a240088fd07000000e000c2
:10135c0001003c000044eb000804e00024003200d3
:10136c00208180003181800018c0b3000200200071
:10137c00031f24007dfd07000000e00001003c007d
:10138c000044eb000804e0001900320040818000aa
:10139c005181800018c0b30002002000031f2400fc
:1013ac0072fd07000000e00001003c000044eb006f
:1013bc000804e0000e003200608180007181800022
:1013cc0018c0b30002002000031f240067fd0700b3
:1013dc000000e00001003c000044eb000804e000c9
:1013ec000300320040c0b300004f7800f500370016
:1013fc00008180001181800018c0b3000200200021
:10140c00031f240057fd07000000e0000100350019
:10141c000044eb000804e0002f00320080818000c3
:10142c009181800018c0b30002002000031a240030
:10143c004efd07000000e00001003c000044eb0002
:10144c000804e000240032002081800031818000fb
:10145c0018c0b30002002000031a240043fd07004b
:10146c000000e00001003c000044eb000804e00038
:10147c0019003200408180005181800018c0b300f7
:10148c0002002000031f240038fd07000000e000cc
:10149c0001003c000044eb000804e0000e003200a8
:1014ac00608180007181800018c0b30002002000b0
:1014bc00031f24002dfd07000000e00001003c008c
:1014cc000044eb000804e0000300320030c0b3001d
:1014dc00004f7800bb003700008180001181800034
:1014ec0018c0b30002002000031f24001ffd0700da
:1014fc000000e00001003c000044eb000804e000a8
:10150c002f003200808180009181800018c0b300d0
:10151c0002002000031f240014fd07000000e0005f
:10152c0001003c000044eb000804e0002400320001
:10153c00208180003181800018c0b300020020009f
:10154c00031a240009fd07000000e00001003c0024
:10155c000044eb000804e0001900320040818000d8
:10156c005181800018c0b30002002000031f24002a
:10157c00fcfc07000000e000010035000044eb001b
:10158c000804e0000e003200608180007181800050
:10159c0018c0b30002002000031a2400f3fc07005b
:1015ac000000e00001003c000044eb000804e000f7
:1015bc000300320010c0b300004f780081003700e8
:1015cc00008180001181800018c0b300020020004f
:1015dc00031f2400e5fc07000000e00001003c00b4
:1015ec000044eb000804e0002f00320080818000f2
:1015fc009181800018c0b30002002000031f24005a
:10160c00dafc07000000e00001003c000044eb00a5
:10161c000804e00024003200208180003181800029
:10162c0018c0b30002002000031f2400cffc0700e9
:10163c000000e00001003c000044eb000804e00066
:10164c0019003200408180005181800018c0b30025
:10165c0002002000031a2400c4fc07000000e00074
:10166c0001003c000044eb000804e0000e003200d6
:10167c00608180007181800018c0b30002002000de
:10168c00031f2400b7fc07000000e0000100350038
:10169c000044eb000804e0000300320020c0b3005b
:1016ac00004f780047003700208180003181800096
:1016bc0018c0b30002002000031a2400a9fc070084
:1016cc000000e000010035000044eb000804e000dd
:1016dc000300320050c0b300004f780039003700cf
:1016ec00008180001181800018c0b300020020002e
:1016fc00031f24009dfc07000000e00001003c00db
:10170c000044eb000804e0002e00320080818000d1
:10171c009181800018c0b30002002000031f240038
:10172c0092fc07000000e00001003c000044eb00cc
:10173c000804e00023003200208180003181800009
:10174c0018c0b30002002000031a240087fc070015
:10175c000000e00001003c000044eb000804e00045
:10176c0018003200608180007181800018c0b300c5
:10177c0002002000031f24007cfc07000000e00096
:10178c0001003c000044eb000804e0000d003200b6
:10179c00408180005181800018c0b30002002000fd
:1017ac00031f240071fc07000000e00001003c0056
:1017bc000044eb000804e000020032000040eb00a3
:1017cc00004f78001e4078000004e00003003a004f
:1017dc0020c0b3000af0b7001d0037001e4078008f
:1017ec00e44f500003003a0040c0b3000af0b700c9
:1017fc00170037001e407800e34f500003003a00fa
:10180c0040c0b3000af0b700110037001e4078004a
:10181c00e14f500003003a0060c0b3000af0b7007b
:10182c000b0037001e407800e24f500003003a00d6
:10183c0060c0b3000af0b700050037001e40780006
:10184c00e54f500002003a0080c0b3000af0b70028
:10185c000ad0bf008080fb000bd0bf000080fb00d3
:10186c000000e900808f5000020032000ad0bf0057
:10187c000bf0b7004f0478000080fa00000006005f
:10188c000000fa0013e1a90011e1a9001061a80001
:10189c001021a90081088000f0fc2f00008060005e
:1018ac00800888000a21ef000621ef00404c200040
:1018bc007008880000402b006008880021428000de
:1018cc0080ff2f00008060000000a00020428800f4
:1018dc000108a9002108a80011e1a8000080fa0065
:1018ec00000006000000fa0005e1a9000421a9008f
:1018fc000068a9002068a80005e1a80000002000ed
:10190c0081242400020007000080fa000000060079
:10191c000400fa00881f7800008fbe0021088000a8
:10192c00f0fc2f0000806000200888001e01780069
:10193c009e0190000068290081c12400c7fb0700ac
:10194c0018c0b30002f02f00f377240007fc070047
:10195c000000e00001003c000044eb000804e00043
:10196c005400320021088000f0fc2f000080600041
:10197c000040a000200888001e0178009e01900005
:10198c000068290081c12400b4fb0700020020007c
:10199c0003102400b1fb070018c0b30002f02f00a5
:1019ac00f3772400f1fb07000000e00001003c008d
:1019bc000044eb000804e0003200320021088000f3
:1019cc00f0fc2f00008060000050a0002008880070
:1019dc001e0178009e0190000068290081c124003e
:1019ec009efb070002002000032824009bfb07003d
:1019fc0018c0b30002f02f00f3772400dbfb0700c4
:101a0c000000e00001003c000044eb000804e00092
:101a1c00100032002108800000032000010070003b
:101a2c00200888001e0178009e01900000682900a3
:101a3c0081c1240089fb0700020020000338240028
:101a4c0086fb0700cbfb070000007800100888001d
:101a5c00200037001e0178009e01900000682900cc
:101a6c0081c124007dfb0700020020000328240014
:101a7c007afb0700bffb0700000078001008880005
:101a8c00140037001e0178009e01900000682900a8
:101a9c0081c1240071fb0700020020000310240008
:101aac006efb0700b3fb07000000780010088800ed
:101abc00080037001e0178009e0190000068290084
:101acc0081c1240065fb0700aafb07000000780019
:101adc00100888004f0478000080fa00000006000f
:101aec000000fa001fe1a9001e21a9000368a9004b
:101afc002368a8001fe1a80000002000a1472400d3
:101b0c00020007000080fa00000006000400fa0042
:101b1c00881f7800008fbe00f1088000f0fc2f00b9
:101b2c0000806000f00888001e0178009e01900083
:101b3c000068290081c1240048fb070018c0b300cd
:101b4c0002f02f00f377240088fb07000000e00070
:101b5c0001003c000044eb000804e000540032009b
:101b6c00f1088000f0fc2f00008060000040a00015
:101b7c00f00888001e0178009e0190000068290082
:101b8c0081c1240035fb0700020020000310240053
:101b9c0032fb070018c0b30002f02f00f3772400cb
:101bac0072fb07000000e00001003c000044eb0069
:101bbc000804e00032003200f1088000f0fc2f0035
:101bcc00008060000050a000f00888001e01780022
:101bdc009e0190000068290081c124001ffb0700b2
:101bec0002002000032824001cfb070018c0b300cf
:101bfc0002f02f00f37724005cfb07000000e000ec
:101c0c0001003c000044eb000804e000100032002e
:101c1c00f10880000003200001007000f00888002b
:101c2c001e0178009e0190000068290081c12400eb
:101c3c000afb0700020020000338240007fb070002
:101c4c004cfb0700000078001008880020003700cb
:101c5c001e0178009e0190000068290081c12400bb
:101c6c00fefa07000200200003282400fbfa0700fc
:101c7c0040fb0700000078001008880014003700b3
:101c8c001e0178009e0190000068290081c124008b
:101c9c00f2fa07000200200003102400effa0700fc
:101cac0034fb07000000780010088800080037009b
:101cbc001e0178009e0190000068290081c124005b
:101ccc00e6fa07002bfb07000000780010088800dc
:101cdc004f0478000080fa00000006000000fa00b3
:101cec001160800080ff2f00008060001060880071
:101cfc0000fa20002060880023aca800238ca800e8
:101d0c0011618000f03f2f000080600000a0a00057
:101d1c00106188003000200020618800c3aca8004e
:101d2c00c38ca80011668000f03f2f00008060007b
:101d3c0000a0a000106688003000200020668800fb
:101d4c0001eca8000080fa00000006000000fa0078
:101d5c00889fbe00e4808000f5808000c0808000f9
:101d6c00d180800018c0b3000001be000400be008a
:101d7c00fcfa07000000e000010035000044eb0015
:101d8c000804e0000d003200c8808000d98080007b
:101d9c00e4808000f58080003080800041808000ed
:101dac000001be000400be004ffa07000801be008f
:101dbc00ca000700e0808800f1808800e480800081
:101dcc00f5808000c0808000d180800018c0b300f6
:101ddc000001be000400be00e4fa07000000e000b1
:101dec0001003c000044eb000804e0000d00320050
:101dfc00c8808000d9808000e4808000f58080005d
:101e0c0030808000418080000001be000400be00d4
:101e1c0034fa07000801be0098000700e080880033
:101e2c00f1808800e0808000f180800018c0b30051
:101e3c006011b800cdfa07000000e00001003c0082
:101e4c000044eb000804e00004003200c3cca900fd
:101e5c0024eea800c3eca80003003700c3eca900d3
:101e6c0024cea800c3cca800e0808000f1808000c4
:101e7c006c00070002002000032224004efb070028
:101e8c00ddfa07000000780030668800a48080002e
:101e9c00b5808000808080009180800018c0b300e5
:101eac000001be000400be00aefa07000000e00016
:101ebc00010035000044eb000804e0000d00320086
:101ecc008880800099808000a4808000b58080008c
:101edc0030808000418080000001be000400be0004
:101eec0001fa07000801be007c000700a0808800f2
:101efc00b1808800a4808000b58080008080800044
:101f0c009180800018c0b3000001be000400be0028
:101f1c0096fa07000000e00001003c000044eb00d2
:101f2c000804e0000d003200888080009980800059
:101f3c00a4808000b58080003080800041808000cb
:101f4c000001be000400be00e6f907000801be0057
:101f5c004a000700a0808800b1808800a080800023
:101f6c00b180800018c0b3006011b8007ffa070080
:101f7c000000e00001003c000044eb000804e0001d
:101f8c000400320023cca90015eea80023eca80015
:101f9c000300370023eca90015cea80023cca80021
:101fac00a0808000b18080001e000700020020008d
:101fbc000322240000fb07008ffa070000007800c2
:101fcc00306188004f04be000080fa00000006005b
:101fdc000600fa00008fbe00424798004e40900069
:101fec00e14f500005003a001e0178009e01900060
:101ffc008280880093808800080037004e40900053
:10200c00e24f500005003a001e0078009e00900040
:10201c0001f0a200c0808800d18088000080fa0006
:10202c00000006000400fa00881f7800008fbe0034
:10203c0018c0b3006011b8001e0078009e0090001c
:10204c004afa07000000e00001003d000044eb00ec
:10205c000804e000030032001e0078009e0090008f
:10206c00030037001e0078009e00900001f0a200d3
:10207c004f0478000080fa00000006000800fa0007
:10208c00881f7800008fbe00220798003307980045
:10209c0018c0b3002e019000be0190001e00780005
:1020ac009e00900031fa07000000e00001003c00a7
:1020bc000044eb000804e000030032001e0078002e
:1020cc009e009000020037002e009000be00900091
:1020dc004f0478000080fa00000006000800fa00a7
:1020ec00881f7800008fbe002207980033079800e5
:1020fc0018c0b3002e019000be0190001e007800a5
:10210c009e00900017fa07000000e0000100350067
:10211c000044eb000804e000030032001e007800cd
:10212c009e009000020037002e009000be00900030
:10213c004f0478000080fa00000006000c00fa0042
:10214c00881f7800008fbe00220798003307980084
:10215c00440798005507980018c0b3004e01900032
:10216c00de0190001e0078009e009000fff9070031
:10217c000000e00001003c000044eb000804e0001b
:10218c00040032004e019000de019000028fbe0070
:10219c000e00370018c0b3002e019000be01900055
:1021ac001e0078009e009000eef907000000e00091
:1021bc00010035000044eb000804e000030032008d
:1021cc002e019000be019000028fbe001e00780010
:1021dc009e0090004f0478000080fa00000006007a
:1021ec000400fa00008fbe00b2fd2000930424000e
:1021fc001e0078009e00900098f907000200200055
:10220c00433324006cfa07000080fa00000006003b
:10221c000400fa00008fbe00b2fd200093042400dd
:10222c001e0078009e00900063fa07000200200058
:10223c004333240089f907000080fa0000000600ef
:10224c000000fa0021e3a9002143a8000119800035
:10225c00f0cf2f0000806000001988002043a900f7
:10226c0001198000000e2000010070000019880088
:10227c0011198000f0ff2100008060001019880007
:10228c002343a80011198000f0cf2f0000806000bc
:10229c00101988001119800030f82f0000806000a0
:1022ac000040a000101988002203a9002223a900d5
:1022bc0025e3a900f0c0b30024e3b7002119800086
:1022cc00f00f2e008080600000f0200001007000f4
:1022dc00201988003303a9002e0ea8002f6ea80029
:1022ec006f2ea8004feea8001e2ea8003063a80089
:1022fc0030c3a8003163a80031e3a8002e03a80066
:10230c004119800000fc2f000080600040198800fb
:10231c0028e3a90001a8a90021a8a80021e3a8008e
:10232c000080fa00000006000000fa002023a8003c
:10233c000080fa00000006000000fa0040032100b3
:10234c000080fa00000006000000fa000dd0bf006b
:10235c000080fa00000006000000fa000d70ef008b
:10236c000080fa00000006000000fa00f0032000d4
:10237c00303a8800213a8000f0f32f000080600092
:10238c00203a8800213a800000fe2f000080600077
:10239c000000a000203a88001200200080072000d6
:1023ac00a10920003374200080497800814978000d
:1023bc0082497800103a8000000178000200a000e9
:1023cc0060042000710520002374200080497800ef
:1023dc00814978008249780000000000113a8000a1
:1023ec00000027008080600000002100808f5000da
:1023fc00faff3a0000000000113a800000022000b1
:10240c00008060000000e000fbff32000080fa005a
:04241c0000000600b6
:020000040000fa
:102420000a10000002000000800000000010000000
:1024300006000000800000000e10000026000000d2
:102440008000000006100000040000008200000070
:102450000000a00041000000341000000a0000004d
:10246000800000000c10000002000000800000004e
:042470000000000068
:020000040000fa
:102474000000fa000e2eef001e2eef002e2eef00ad
:102484003e2eef004e2eef005e2eef006e2eef007c
:10249400214ea90060cea90060eea90011cea900ca
:1024a40011eea90020cea90020eea9000080fa00b8
:0424b400000006001e
:020000040000fa
:02000004000af0
:04afe000cfff00009f
:020000040000fa
:02000004000af0
:04afe400ffff00006b
:020000040000fa
:02000004000af0
:04afe8007fff0000e7
:020000040000fa
:02000004000af0
:04afec005fff000003
:020000040000fa
:02000004000af0
:04aff00038ff000026
:020000040000fa
:02000004000af0
:04aff400ffff00005b
:00000001FF
